:100000000C9434000C943E000C943E000C943E0082
:100010000C943E000C943E000C943E000C943E0068
:100020000C943E000C943E000C943E000C943E0058
:100030000C943E000C943E000C943E000C943E0048
:100040000C943E000C943E000C943E000C943E0038
:100050000C943E000C943E000C943E000C943E0028
:100060000C943E000C943E0011241FBECFEFD8E04C
:10007000DEBFCDBF0E9440000C94C8000C9400006D
:10008000509A519A529A539A549A589A24E531E8C0
:1000900082EF97E02150304080409040D9F700C077
:1000A00000C00000589824E531E882EF97E0215025
:1000B000304080409040D9F700C000C00000599AFD
:1000C00024E531E882EF97E02150304080409040B5
:1000D000D9F700C000C00000599824E531E882EF4C
:1000E00097E02150304080409040D9F700C000C0D8
:1000F00000005A9A24E531E882EF97E02150304021
:1001000080409040D9F700C000C000005A9824E514
:1001100031E882EF97E02150304080409040D9F79D
:1001200000C000C000005B9A24E531E882EF97E050
:100130002150304080409040D9F700C000C00000FE
:100140005B9824E531E882EF97E021503040804011
:100150009040D9F700C000C000005C9A24E531E867
:1001600082EF97E02150304080409040D9F700C0A6
:1001700000C000005C9824E531E882EF97E0215050
:10018000304080409040D9F700C000C000007DCFD3
:04019000F894FFCF11
:00000001FF
